:100000000C9434000C943E000C943E000C943E0082
:100010000C943E000C943E000C943E000C943E0068
:100020000C943E000C943E000C943E000C943E0058
:100030000C943E000C943E000C943E000C943E0048
:100040000C943E000C943E000C943E000C943E0038
:100050000C943E000C943E000C943E000C943E0028
:100060000C943E000C943E0011241FBECFEFD8E04C
:10007000DEBFCDBF0E94B0000C94C2000C94000003
:10008000FC01DB01213071F018F02230C1F008953D
:10009000208181E090E001C0880F4A95EAF7822B29
:1000A00080830895808121E030E001C0220F4A95CD
:1000B000EAF72095822380838C9128230DC08081CC
:1000C00021E030E001C0220F4A95EAF7922F909587
:1000D000892380838C91282B2C930895FC0191E037
:1000E00001C0990F6A95EAF72081292720839A0198
:1000F00021153105C9F3AFE9BFE01197F1F700C051
:10010000000021503109F4CFFC01408121E030E0B2
:1001100001C0220F6A95EAF7242720830895FC0185
:10012000408121E030E001C0220F6A95EAF7242BDC
:1001300020830895FC01908121E030E001C0220F6E
:100140006A95EAF72095292320830895FC01808190
:1001500090E002C0959587956A95E2F781700895C1
:1001600020E046E06BE270E08AE290E00E9440000E
:1001700044E650E066E08BE290E00E946E0080E092
:0801800090E00895F894FFCF10
:00000001FF
